:03000000020800F3
:0C080000787FE4F6D8FD75810E020847F1
:100A78003F065B4F666D7D077F6F777C395E7971C6
:040A8800FEFBFDF77D
:100A8C0002090000020B0000010800010E00010D1C
:010A9C000059
:1009D400900A8BE493F5A0AE0BAF0C120A3075A00D
:1009E400FF900A8AE493F5A0AE0BAF0C7C007D6403
:1009F40012088C74782FF582740A3E120A3F75A08F
:100A0400FF900A89E493F5A0AE0BAF0C7C007D0A3D
:100A140012088C120A3075A0FF900A88E493F5A09E
:0C0A2400E508900A78120A4275A0FF2233
:100A9E00758901D2AFD2A9D28C758CFF758A9C2232
:03000B0002097671
:10097600C0E0C0D075D000C000758CFF758A9C059C
:100986000AE50A70020509E50E7019D3E50A950C09
:10099600E50B6480F8E5096480984004C2B6801BC4
:1009A600D2B68017D3E50A950CE50B6480F8E50905
:1009B6006480984004C2B78002D2B7E50A646445F1
:0E09C600097004F509F50AD000D0D0D0E03257
:100A30007C007D0A12088C74782DF582740A3CF5CE
:090A400083E493F5807F037E003E
:100A4900EF1FAA0670011E4A600FE4FDEDC394284A
:090A590050EE000000000D80F3D6
:010A62002271
:100917002090163090FDE50C6464450B7002804A08
:10092700050CE50C7048050B222091183091FDE568
:100937000C450B7006F50B750C6422E50C150C7055
:100947002D150B2220921C3092FDE50870047F01C3
:1009570080027F008F08E50E70047F0180027F0010
:0F0967008F0E222093083093FDE4F50BF50C2240
:100A6300120A9E1209D4E50E7004C2B78002C2B600
:050A730012091780EEDE
:10080C00020A63E493A3F8E493A34003F68001F295
:10081C0008DFF48029E493A3F85407240CC8C333ED
:10082C00C4540F4420C8834004F456800146F6DFBC
:10083C00E4800B0102040810204080900A8CE47EB6
:10084C00019360BCA3FF543F30E509541FFEE493B1
:10085C00A360010ECF54C025E060A840B8E493A378
:10086C00FAE493A3F8E493A3C8C582C8CAC583CAA3
:10087C00F0A3C8C582C8CAC583CADFE9DEE780BE5B
:010A9D000058
:10088C00C2D5EC30E709B2D5E4C39DFDE49CFCEE87
:10089C0030E715B2D5E4C39FFFE49EFE1208C2C335
:1008AC00E49DFDE49CFC80031208C230D507C3E430
:0608BC009FFFE49EFE22F6
:1008C200BC000BBE0029EF8DF084FFADF022E4CC1A
:1008D200F875F008EF2FFFEE33FEEC33FCEE9DECE3
:1008E200984005FCEE9DFE0FD5F0E9E4CEFD22ED29
:1008F200F8F5F0EE8420D21CFEADF075F008EF2F73
:10090200FFED33FD4007985006D5F0F222C398FD63
:050912000FD5F0EA2200
:00000001FF
